S010000054455349535F50312E73726563AC
S1130000B8C00000D7C00000D5C00000D3C00000B5
S1130010D1C00000CFC00000CDC00000CBC00000A4
S1130020C9C00000C7C00000C5C00000C3C00000B4
S1130030C1C00000BFC00000BDC00000BBC00000C4
S1130040B9C000000C94EF0F0C941C100C944910D0
S11300500C94C20FAFC00000ADC00000ABC00000E4
S1130060A9C00000A7C00000A5C00000A3C00000F4
S1130070A1C000009FC000009DC000009BC0000004
S11300800C94A3100C94D0100C94FD100C947610C6
S113009091C000008FC000008DC000008BC0000024
S11300A089C0000087C000000C9457110C9484117F
S11300B00C94B1110C942A117DC000000C940B1205
S11300C00C9438120C9465120C94DE1173C0000069
S11300D071C000006FC000006DC000006BC0000064
S11300E069C000000C946F0A0C94790A0C94650A98
S11300F00C94E4090C940F0A0C94830A0C94B90927
S11301000C943A0A57C0000055C0000053C00000C8
S113011051C000004FC000000C94970A0C948D0A43
S11301200C94A10A0C94AB0A0C94B50A0C94BF0A63
S11301300C94C90A3C0763075707700757072F0732
S1130140490757075707570757075707030757071D
S1130150570757075707570757078F075707570773
S1130160C80704030302020100FFFEFDFCFBF9F7CC
S1130170F4EF11241FBECFEFD1E8DEBFCDBF00E006
S11301800CBF12E0A0E0B2E0E6EFF9E200E00BBF42
S113019002C007900D92A633B107D9F725E0A6E374
S11301A0B2E001C01D92AE38B207E1F70E94C0135D
S11301B00C94F91425CF0E946A0F20913A0222234D
S11301C0D9F040918D0530E020913A02642F732FCD
S11301D00E94E913FB018FEF9FEF642F732F0E949E
S11301E0E91330E0629FC001639F900D729F900DF0
S11301F011248E0F9F1F089560918D0570E00E9459
S1130200E913CB0108950E946F0F0E94930F10927F
S1130210360210923702109238021092390210926C
S11302203C0210923B020C94A00F0E947D0F10928E
S11302303A020895E8DFF9DF0C94840F0F931F93BB
S1130240CF93DF93EC010E946A0F8C01BE0180E022
S113025090E020918D0530E040E050E00E94DA13F8
S1130260DC01CB01A80160E070E0480F591F6A1F50
S11302707B1F409336025093370260933802709389
S113028039024091360250913702609138027091E0
S11302903902AB0166277727409336025093370221
S11302A060933802709339024091360250913702BC
S11302B0609138027091390241155105610571054B
S11302C091F040913602509137026091380270915A
S11302D039020196080F191F10933C0200933B0248
S11302E00E946F0F08C0080F191F10933C0200935F
S11302F03B020E94760F80913B0290913C0284362F
S1130300910530F48C599F4F90933C0280933B02AB
S113031080913B0290913C020E94880FDF91CF9123
S11303201F910F91089510923A020E94A20F809398
S11303308D0508958091360290913702A09138027C
S1130340B09139020097A105B105C9F08091360238
S113035090913702A0913802B09139020197A10916
S1130360B1098093360290933702A0933802B09378
S113037039020097A105B10511F40E94760F80910E
S11303803A028F5F80933A0290918D05891748F065
S113039010923A02E0913D02F0913E02309709F04A
S11303A0199508950E946F0FE0913F02F091400269
S11303B0309709F01995089590933E0280933D0279
S11303C008959093400280933F02089580914102E2
S11303D0909142028130910529F460E185E092E038
S11303E047D111C08230910541F486E48093C5045D
S11303F060E18DEB94E03CD106C0039721F460E109
S11304008DEB94E035D1109242021092410208958E
S1130410CF93DF93C3EBD4E021E7DE011D922A954D
S1130420E9F7DC011796ED91FC91189721E7DE01BD
S113043001900D922A95E1F7FC0181819281BAD352
S11304400884D985C02DC115F0E1DF07C9F447E060
S113045050E06DE272E08DEB94E00E94AD14892BC4
S113046079F4E5E0F2E084E5808796E3978721E07C
S113047030E03093420220934102809304024CC046
S113048049E050E065E172E08DEB94E00E94AD1428
S1130490892B71F480910402863411F5C530D1059D
S11304A081F582E090E0909342028093410234C04F
S11304B049E050E06FE172E08DEB94E00E94AD14EE
S11304C0892B71F480910402863451F4C430D1052F
S11304D039F483E090E090934202809341021CC07F
S11304E0C115D041C9F44BE050E069E272E08DEBF4
S11304F094E00E94AD14892B79F486E4809304027D
S11305000BC049E050E06FE172E08DEB94E00E9493
S1130510AD14892BD9F2E4CFDF91CF9108950895DA
S113052088E295E095D2811118C108954F925F92A7
S11305306F927F928F92AF92CF92EF920F931F930D
S1130540CF93DF93CDB7DEB7A9E8B0E0AE19B10918
S1130550FD01EB5BFD4F3F01EE2079F0D80144240F
S11305604A944E0C512C9FEF491A590A040D151D3B
S11305709D919193A017B107D9F7423061F43BE004
S11305803E0DD30140917405509175055E934E93D1
S113059040E050E826C0D301189731E13E0DE8E66B
S11305A0F5E090819C93918111969C93119792818F
S11305B012969C931297938113969C93139794810C
S11305C014969C931497958115969C9315979681F0
S11305D016969C931697978117969C93179740E0CD
S11305E050EC823059F4FB0180819181FD0192939A
S11305F082933F01CA01806498600FC03D01F8E016
S11306006F1A71083A5F88E0FB01D30101900D92E3
S11306108A95E1F7CA0180649C604EEF5AECF301BD
S113062032975183408331972083C11002C0816087
S113063001C08162F301359791838083D3011697BA
S11306403C93B0934D02A0934C02482D6A2D85E44F
S113065092E00E94760EDF91CF911F910F91EF905F
S1130660CF90AF908F907F906F905F904F90089550
S11306708F92AF92CF92EF920F931F93CF93DF930A
S11306801F921F92CDB7DEB72FEF3FEF3A83298336
S11306902091430230914402A9014F5F5F4F509370
S11306A0440240934302812C6894AA24A1F8C12CEB
S11306B0E62E8C0142E0BE016F5F7F4F82E036DFA1
S11306C00F900F90DF91CF911F910F91EF90CF90EA
S11306D0AF908F90089586E00C94A30D0895CF9366
S11306E0DF9300D000D0CDB7DEB73BD037D0BDD13B
S11306F08ED58111FFCF789486E090E09A83898328
S11307008EEF9AEC9C838B838BE08D831E82BE01DB
S11307106F5F7F4F83E50E94D20BBE016D5F7F4FF9
S113072080E50E94D20BBE016B5F7F4F80E00E9488
S1130730D20BBE016A5F7F4F84E00E94D20B62E05D
S113074080E00E94B20EC7DF26960FB6F894DEBF93
S11307500FBECDBFDF91CF910895FFCF0895E0CEB6
S11307600895CF93DF931F92CDB7DEB78FEF8093B9
S11307706400809365008FB78983F89489815F93BF
S113078050E85093610050E0509361005F918FBF37
S11307900F90DF91CF910895CF93DF931F92CDB740
S11307A0DEB79FB79983F8949981823040F4E82F9B
S11307B0F0E0EC59FF4F60958081682360839FBF10
S11307C00F90DF91CF910895CF93DF931F92CDB710
S11307D0DEB79FB79983F8949981823038F4E82F73
S11307E0F0E0EC59FF4F8081682B60839FBF0F902E
S11307F0DF91CF9108958091D402882319F081E08C
S113080080935F0508951F93CF93DF931F92CDB715
S1130810DEB780912B0590912C05019690932C05C1
S113082080932B058FB78983F89419818091D30223
S11308308F3FE9F190E0FC01EE0FFF1F9C01220FB6
S1130840331F220F331F220F331FE20FF31FE35D09
S1130850FA4F218521112BC0FC01EE0FFF1F880FD9
S1130860991F880F991F880F991FE80FF91FE35DDF
S1130870FA4F80819181A281B38120912B0530911F
S11308802C052A173B0799F4D9DC8091D30290E018
S1130890FC01EE0FFF1F880F991F880F991F880F07
S11308A0991FE80FF91FE35DFA4F81E081871FBFAD
S11308B00F90DF91CF911F9108950F931F93CF93C2
S11308C0DF93C82F8F3F09F460C000912B0510916E
S11308D02C0571DC40912B0550912C05041715074C
S11308E0A1F7D0E060E070E0FE01EE0FFF1F9E0173
S11308F0220F331F220F331F220F331FE20FF31F68
S1130900E35DFA4FBA0155274427A0E0B0E0482B35
S1130910592B6A2B7B2B80819181A281B381841B0B
S1130920950BA60BB70B8F3F2FEF9207A2072FE76C
S1130930B20738F59E01220F331F220F331F220FF7
S1130940331FFE01EE0FFF1FE20FF31FE35DFA4FAB
S1130950218521111BC0009721E0A207B105B0F445
S11309606DDCCE01880F991FCC0FDD1FCC0FDD1F6E
S1130970CC0FDD1FC80FD91FC35DDA4F81E0898713
S113098005C081E080935F0501C03DDCDF91CF911C
S11309901F910F91089580915F05882309F457C032
S11309A010925F058091D402882309F450C080918D
S11309B0D2028F3F59F48091D1028F3F39F4809154
S11309C0D3028093D1028093D20215C02091D30226
S11309D08091D10290E0FC01EE0FFF1F880F991F58
S11309E0880F991F880F991FE80FF91FE35DFA4FCD
S11309F020872093D1028091D30290E0FC01EE0F76
S1130A00FF1F880F991F880F991F880F991FE80FE0
S1130A10F91FE35DFA4F80858093D3022091D102C0
S1130A2030E0F901EE0FFF1F220F331F220F331F97
S1130A30220F331FE20FF31FE35DFA4F9FEF9087FE
S1130A409091D40291509093D402911136CF08958D
S1130A50FC019091D002953030F490839F5F909385
S1130A60D00280E0089584EF08951092D402109289
S1130A705F0510922C0510922B058FEF8093D30203
S1130A808093D2028093D102EDE2F5E02FE535E0C8
S1130A908087158214823A96E217F307C9F71092F9
S1130AA0D00283E094E088DC8BEF93E08ADC3BCCDB
S1130AB008950F931F93CF93DF931F921F92CDB787
S1130AC0DEB78FB78A83F8941A8165DF1FBF1FEFE3
S1130AD0012F37C08FB78983F89429818091D2027E
S1130AE090E0DC01AA0FBB1F880F991F880F991F84
S1130AF0880F991FA80FB91FA35DBA4F18969C9130
S1130B0018971496ED91FC91159716964D915C915A
S1130B10179718961C93189715961C921E92149763
S1130B2017961C921E92169719961C929093D202B5
S1130B309F3F11F40093D1022FBF309711F0CA01E7
S1130B4019958091D2028F3F29F60F900F90DF9173
S1130B50CF911F910F91089580E00895AACF089531
S1130B60CF93DF9385ED92E0B0D0CAEDD2E086EE6C
S1130B7092E099838883BE0185ED92E0ADD081E750
S1130B8093E09D838C836EED72E085ED92E0A4D0BA
S1130B908CEF93E09987888762EE72E085ED92E0AE
S1130BA09BD0DF91CF91089560E070E085ED92E0F5
S1130BB0B8C00895009721F0BC0185ED92E08CC087
S1130BC008958F929F92AF92BF92CF92DF92EF924D
S1130BD0FF920F931F93CF93DF931F92CDB7DEB78E
S1130BE02FB72983F8948980DC0114962C91222351
S1130BF009F456C07A01962E5C01FC010081118132
S1130C00452BE1F00115110509F44DC0680101C03F
S1130C108901D70112966D917C911397ED91FC9106
S1130C20D8018D919C911995811109C0F8012281F7
S1130C30338168012115310559F735C06801011563
S1130C40110599F1911031C0D5018D919C911197A5
S1130C500817190731F4F801828193818D939C93CD
S1130C6008C0D80112968D919C911397F601938335
S1130C708283D50112968D919C91139708171907B9
S1130C8021F41396DC92CE921297F501848181505F
S1130C90848380819181892B41F41382128205C05F
S1130CA000E010E002C000E010E08FBEC8010F9029
S1130CB0DF91CF911F910F91FF90EF90DF90CF9034
S1130CC0BF90AF909F908F900895FC011182108285
S1130CD01382128214820895CF93DF931F92CDB7AB
S1130CE0DEB7FC018FB78983F894998184818111DF
S1130CF003C07183608306C0A281B38113967C9381
S1130D006E93129773836283DB0113961C921E9277
S1130D10129784818F5F84839FBF0F90DF91CF915F
S1130D200895AB0160E04DCF089504C0615071098E
S1130D30810991096115710581059105B9F7089536
S1130D400F931F93CF93809141018F718830A1F449
S1130D5081E080934F0189E080934201C3E00FE476
S1130D6011E0F801808180FD07C063E970E080E054
S1130D7090E0DBDFC150A9F7CF911F910F91089547
S1130D801F93CF93DF931F92CDB7DEB7182F8091B7
S1130D9087058F3051F51F3009F438C110928B0547
S1130DA085EF9AE0E1D28FB78983F894998178949A
S1130DB0E9E3F1E080818D7F808380918B05882336
S1130DC0E1F39FBF8FEF80934F0188E480934E013E
S1130DD0EDE4F1E0808184608083183011F01330F9
S1130DE021F488E08093870511C1812F90E0FC01F4
S1130DF03397E731F10508F05AC08827E656FF4FCC
S1130E008F4F0C94101483E080934201EDE4F1E0E1
S1130E1080818B7F80830E94961480936D01EEE61F
S1130E20F1E080819770887F892B80838FEF809396
S1130E304F0180E880934E0162E070E080E090E032
S1130E4074DFE9E3F1E08081826080836FE270E027
S1130E5080E090E06ADF8FE080938705D7C08091BF
S1130E608705883021F188E08093420162E070E0D8
S1130E7080E090E05ADF1BC0809187058830B9F08C
S1130E8083E08093420162E070E080E090E04DDF17
S1130E900EC080918705883049F018F4863039F403
S1130EA009C0863139F0893111F404C049DFE1E425
S1130EB0F1E0A6C089E08093420162E070E080E046
S1130EC090E033DFF4CF80918705883019F08930C2
S1130ED071F302C035DFEBCF84E080934201E7CFAA
S1130EE080918705893041F018F4883071F0DFCFA4
S1130EF0863111F08931D9F686E08093420162E0AF
S1130F0070E080E090E011DFD2CF1ADF86E08093BA
S1130F10420162E070E080E090E007DFC8CF80919A
S1130F208705883091F018F48630C9F0C0CF893035
S1130F3019F0893109F0BBCF86E18093420162E068
S1130F4070E080E090E0F1DEB2CFFADE86E18093DB
S1130F50420162E070E080E090E0E7DEA8CF89E043
S1130F608093420162E070E080E090E0DEDE8091F8
S1130F7041018F7180938705893009F047C086E16C
S1130F808093420162E070E080E090E0CEDE8FCF9B
S1130F9080918705883051F118F4863079F087CF35
S1130FA0893019F0863151F082CF89E18093420172
S1130FB062E070E080E090E0B8DE79CF89E0809371
S1130FC0420162E070E080E090E0AFDE8091410198
S1130FD08F71809387058930C9F489E18093420138
S1130FE062E070E080E090E0A0DE61CFA9DE89E1FC
S1130FF08093420162E070E080E090E096DE57CF9B
S113100080818F71809387058F31D1F30F90DF91A9
S1131010CF911F910895CF93DF938091600588232A
S113102019F180918C0581111FC0809187049091E2
S11310308804892B41F48BE8B7DD9093880480936E
S11310408704892B89F010926005CCE4D1E0888173
S11310508F77888363E070E080E090E066DE8881CB
S11310608068888386E18CDE80916505882341F061
S113107060E070E081E695E054DE009709F024D545
S113108080918C05823009F485D5DF91CF91089544
S113109004C06150710981099109611571058105C7
S11310A09105B9F70895FF920F931F93CF93DF93A0
S11310B086E066DE8630E1F7E5E5F1E080818F7752
S11310C0808310924E016894FF24F3F8C0E0D0E0CE
S11310D006E411E0F8019081CC0FDD1FCC0FDD1F79
S11310E09076292F30E036952795329522952F70EA
S11310F023273F702327C22BD32B62E070E080E0CC
S113110090E0C6DFFA94F110E5CF83E039DE8FEF8B
S113111080934F0188E480934E01CE010E9499147C
S1131120DF91CF911F910F91FF900895FF920F933C
S11311301F93CF93DF93F82EC9E3D1E088818D7F8D
S1131140888361E471E080E090E0A2DF88818E7F93
S1131150888362E070E080E090E09ADF88818160BB
S1131160888366E870E080E090E092DF809141013E
S11311708F71CAE001E411E00AC066E870E080E023
S113118090E086DFF80180818F71C150C9F1883009
S1131190A1F78093870587DF0E94961480936D01E1
S11311A0EEE6F1E080819770887F892B80838081CF
S11311B080628083ECE4F1E080818068808388E44D
S11311C080934E018FEF80935601EDE4F1E080812E
S11311D08C7F82608083AAE4B1E08C91807F8360FD
S11311E08C93808188608083808184608083F11007
S11311F030D27DD210928C051092600580E001C03F
S113120085E8DF91CF911F910F91FF900895CF92C0
S1131210DF92EF92FF920F931F93CF93DF9314BE4D
S113122080E180933501809334018093330180936E
S1131230320192DC81116DC060E481E0ADDAC9E372
S1131240D1E088818160888388818D7F88836BEF7A
S113125071E080E090E01CDF88818E7F888362E00B
S113126070E080E090E014DF88818160888366E824
S113127070E080E090E00CDF809141018F71CAE062
S113128001E411E00BC066E870E080E090E000DF6C
S1131290F80180818F71C15009F451C0883099F7E9
S11312A08093870580915C01843909F048C035C07A
S11312B00E949614F80181938F01EC15FD05C1F786
S11312C0F701208131814281538164817581868156
S11312D09781AFEF0E943714ADEF0E94431421F0C1
S11312E018F008E615E0E4CF83ED9AE038D084EEF8
S11312F09AE030D085EF9AE037D032DC8BE854DCCA
S1131300909388048093870481E695E0DEDCCBD556
S113131017C0C5E815C0C5E813C081E007DFC82FB2
S11313208111F9CF0F2EF8E6EF2EF5E0FF2EF02D08
S11313300F2EF0E7CF2EF5E0DF2EF02DC1CFC5E85C
S11313408C2FDF91CF911F910F91FF90EF90DF9041
S1131350CF9008959093900480938F040895909370
S11313608E0480938D04089590938A048093890455
S113137008951F920F920FB60F9211240BB60F927D
S11313802F933F934F935F936F937F938F939F9389
S1131390AF93BF93EF93FF93E0918F04F091900488
S11313A01995FF91EF91BF91AF919F918F917F918B
S11313B06F915F914F913F912F910F900BBE0F90C2
S11313C00FBE0F901F9018951F920F920FB60F9299
S11313D011240BB60F922F933F934F935F936F9308
S11313E07F938F939F93AF93BF93EF93FF93E0917A
S11313F08D04F0918E041995FF91EF91BF91AF91F7
S11314009F918F917F916F915F914F913F912F9118
S11314100F900BBE0F900FBE0F901F9018951F9248
S11314200F920FB60F9211240BB60F922F933F9386
S11314304F935F936F937F938F939F93AF93BF93D8
S1131440EF93FF93E0918B04F0918C041995FF9135
S1131450EF91BF91AF919F918F917F916F915F9128
S11314604F913F912F910F900BBE0F900FBE0F9095
S11314701F9018951F920F920FB60F9211240BB65E
S11314800F922F933F934F935F936F937F938F9319
S11314909F93AF93BF93EF93FF93E0918904F091EF
S11314A08A041995FF91EF91BF91AF919F918F910C
S11314B07F916F915F914F913F912F910F900BBE50
S11314C00F900FBE0F901F9018951F920F920FB69A
S11314D00F9211240F900FBE0F901F9018951F921A
S11314E00F920FB60F9211240F900FBE0F901F9002
S11314F018951F920F920FB60F9211240F900FBEE2
S11315000F901F9018951F920F920FB60F921124EF
S11315100F900FBE0F901F9018951F920F920FB649
S11315200F9211240F900FBE0F901F9018951F92C9
S11315300F920FB60F9211240F900FBE0F901F90B1
S113154018951F920F920FB60F9211240F900FBE91
S11315500F901F9018951F920F920FB60F9211249F
S11315600F900FBE0F901F9018951F920F920FB6F9
S11315700F9211240F900FBE0F901F9018951F9279
S11315800F920FB60F9211240F900FBE0F901F9061
S113159018951F920F920FB60F9211240F900FBE41
S11315A00F901F9018951F93CF93DF931F92CDB781
S11315B0DEB78FB78983F894198119D21FBF0F90B2
S11315C0DF91CF911F9108951F93CF93DF931F92C3
S11315D0CDB7DEB78FB78983F8941981A6D31FBF1F
S11315E00F90DF91CF911F91089581E080938B0537
S11315F0089585FD03C0982F9F7304C0982F91957B
S11316009F719195E2E6F1E02491291754F48491B5
S1131610803EB4F08032B4F48823CCF48F718062BD
S113162016C0E1E7F1E0249192178CF48491803E96
S11316305CF080325CF4882354F48F71806207C0BC
S113164080E205C08FE103C080E201C08FE18068C1
S11316500895CF93DF93C8E6D5E084E08C8B83E0D4
S11316608D8B2FEF3FEF3F872E873D872C879BE0A5
S11316709B8B188E40E058EF6FEF77E048875987CF
S11316806A877B872AE031E0398B288B9AE0998F2F
S113169092E09A8F95E09B8F8C8F84E8AADF8F8BE2
S11316A081E08A8B1E8ADF91CF91089585FD02C067
S11316B08F7303C081958F718195E2E6F1E0949177
S11316C089173CF4E3E6F1E021E0949189173CF0BA
S11316D001C020E098174CF48FEF820F08952F5F1C
S11316E03196203191F780E00895822F0895CF93A9
S11316F0DF93E8E6F5E08685809362018785809331
S11317006301E4E6F1E0A8E6B5E08D918193EC365F
S113171031E0F307D1F7E8E6F5E0848580936001D2
S113172085858093610148E451E0DA018C91228936
S1131730B0E22B9F9001112420768F79822BDA015D
S11317408C93CFE6D1E0888195899F70807F892B27
S113175088832EE631E0D9018C919689990F990FEF
S1131760990F9870877F892B8C932881938DB0E192
S11317709B9FC0011124922F9F70892B8883DA01CB
S11317808C9193899F71807E892B8C9387898EDFBE
S1131790E5E4F1E09081907F8F70892B8083DF9165
S11317A0CF910895CF93DF938E3441F0893561F45E
S11317B0FB0180818093840580E00BC1FB01808163
S11317C080937C0580E005C1909187059F3009F4E2
S11317D0DCC08B3009F4C9C080F4EB01823009F419
S11317E084C020F4882309F446C0D1C0833009F4AE
S11317F08CC0843009F45AC0CAC0833579F128F406
S11318008F3451F08035E9F0C2C0873509F456C0F1
S1131810803F09F48BC0BBC0FB018081E8E6F5E0A2
S1131820858B938D981710F490937D05EFE6F1E086
S1131830808190917D059F70807F892B808380E0DB
S1131840C8C0FB0190818181E8E6F5E0968787872F
S1131850909362018093630180E0BBC0FB0190819F
S11318608181E8E6F5E09487858790936001809311
S1131870610180E0AEC080918C0581118AC08881AD
S113188040E058EF6FEF77E0082E04C07695679537
S1131890579547950A94D2F740FF7DC0983009F4D4
S11318A080C088E06DDA8830E1F786C080918C05CD
S11318B0811173C08881811172C08BC0FB0190813A
S11318C0E8E6F5E0938F8589981710F490937D05E9
S11318D0EFE6F1E08081282F2F7030E1939FC00163
S11318E01124822B808380E074C08881C8E6D5E00F
S11318F08F8B7FDE8F8BDADEE5E4F1E09081907FE1
S11319008F70892B808380E064C0888180937A05FE
S1131910E8E4F1E0208130E2839FC0011124807665
S1131920922F9F79892B808380E053C0FB01B08183
S1131930A181528143813481258196818781E8E6A2
S1131940F5E0B083A1835283438334832583968354
S11319508783E4E6F1E0A8E6B5E08D918193EC3667
S113196031E0F307D1F780E034C0FB01808180933C
S11319707E05EEE6F1E09081880F880F880F88706D
S1131980977F892B808380E024C081E822C084EF84
S113199020C086E81EC088EE1CC086E81AC088EE07
S11319A018C080937B05E8E4F1E09081907E8F710C
S11319B0892B808380E00DC0888180937B05E8E4D7
S11319C0F1E09081907E8F71892B808386E1D8D954
S11319D080E0DF91CF91089504C0615071098109BD
S11319E091096115710581059105B9F70895CF92A3
S11319F0DF92EF92FF920F931F93CF93DF93E091C7
S1131A008704F0918804309771F4CCE4D1E08881A4
S1131A108F77888363E070E080E090E0DDDF888189
S1131A208068888348C00091470110917B0111238D
S1131A300CF441C0E080F18082E0810FEBE8F0E03B
S1131A40E81BF109E701CE0FDF1FC12ED12CA6013F
S1131A504F5F5F4F60E871E0CE0176D7FE011293CD
S1131A60D7011896FC93EE931797EC0DFD1D028396
S1131A70609187047091880481E695E02DD98BE804
S1131A8093D89093880480938704892B21F481E070
S1131A90809360050DC0CCE4D1E088818F77888382
S1131AA063E070E080E090E097DF8881806888835D
S1131AB080E480934F01DF91CF911F910F91FF90AC
S1131AC0EF90DF90CF900895CF93DF93AC01FC01AA
S1131AD0C081D181AF81B8858C9180938805E82F2E
S1131AE0F0E03196EA0FFB1F808131813D3320F411
S1131AF0311103C031E001C03CE38295869586959F
S1131B0083702FEF829FC0011124389FB001399F49
S1131B10700D11249B01A3E8BDE28AD696958795A2
S1131B20929582958F7089279F7089278F3F9105A1
S1131B3011F008F08FEF80835A834983CE012ED6AB
S1131B40DF91CF91089590918C05911116C0883042
S1131B5029F416D91092600588E0089580918704CD
S1131B6090918804892B21F086E10AD986E00895B2
S1131B7081E08093600586E0089586E8089504C0B6
S1131B8061507109810991096115710581059105FA
S1131B90B9F7089510928C0580919104833069F00F
S1131BA028F4882391F0813031F00DC0853039F06C
S1131BB0873039F008C087E809C081EE07C089EE94
S1131BC005C085E803C085E801C080E06091660532
S1131BD070916705E0C508951F93CF93DF931F921B
S1131BE0CDB7DEB7182F662381F0ECE6F1E0208153
S1131BF09091840530E1939FC0011124922F9F702E
S1131C00892B80831230E0F408C0ECE6F1E0808197
S1131C108F7080831230A0F40DC0ECE6F1E0808177
S1131C2090917C05990F9E70817F892B80831092FF
S1131C306F011AC0ECE6F1E080818E60808314C0ED
S1131C40E8E6F5E0838D20E1829FC00111249589A7
S1131C50892B80936F01ACE6B1E08C919489990F44
S1131C609E70817F892B8C9389E18AD88931E1F731
S1131C701130A1F480918805833140F061E073E074
S1131C8080E090E07CDF109288050DC06BEA70E084
S1131C9080E090E074DF1092880505C06CE070E08D
S1131CA080E090E06CDF8FB78983F8941981E9E3D1
S1131CB0F1E08081826080830000000080818D7F5C
S1131CC080836091890570918A05FB01408150E011
S1131CD04150510980E891E037D681E080938C052A
S1131CE01FBF0F90DF91CF911F910895FC01909138
S1131CF08C05911116C0F0936705E0936605078083
S1131D00F085E02DF0938A05E09389058081815068
S1131D1080938805EF2B39F0862F642F5DDF80E0F8
S1131D20089586E8089588EE089580918C058130A1
S1131D30C1F48091420182958695877080939104C5
S1131D4082E080938C058091870490918804892B8C
S1131D5031F489E015D881E080936005089586E127
S1131D600FC80895882329F1EDE4F1E080818C7F88
S1131D708083808188608083AAE4B1E08C91807F35
S1131D8083608C938081846080838081837009F078
S1131D9054C080914D0183FF52C080914D0182FF58
S1131DA050C080914A018F70833009F04CC080E0AC
S1131DB00895EDE4F1E08081877F8083AAE4B1E0B7
S1131DC08C91807F87608C93808184608083613074
S1131DD031F480818C7F8160808385E817C0623014
S1131DE041F4EDE4F1E080818C7F8260808385E8BA
S1131DF00DC0662311F0633041F4EDE4F1E080811D
S1131E008C7F808385E860E001C088EE20914D01DD
S1131E10237030E070E026173707B9F490914D0134
S1131E2093FD15C090914D0192FD13C090914A010C
S1131E309F70933079F480E0089585E8089585E8EB
S1131E40089585E8089585E8089585E8089585E866
S1131E50089585E80895811124C0FB018081803DA7
S1131E602CF08FEC809392046FE012C0873A2CF42C
S1131E7086EA8093920460E00BC080939204082E5B
S1131E80000C990B865A9F4F63E070E0B6D46F5FE5
S1131E90E5E5F1E08081807F6F70682B608380E0EE
S1131EA0089584EF089586EA8093920462E974E0C9
S1131EB080E0D1DF61E080E00E94CC0360E180E05B
S1131EC00E94CC0380E008950C949A0108950C9428
S1131ED0D201089580918400909185000895EFE6E1
S1131EE0F0E080818D7F8083B19A0895B19AEFE606
S1131EF0F0E08081826080830895EFE6F0E08081E5
S1131F0081608083B09A089580E890E082C3089548
S1131F10E9E8F0E02081922B9083E8E8F0E09081FA
S1131F20892B80830895CF93DF931F92CDB7DEB7BB
S1131F308FB78983F89489810F90DF91CF910895A9
S1131F408FBF0895CF93DF9380E890E0EBD264E6EF
S1131F507FE080E890E0D4D3CFE6D0E08881816050
S1131F60888367E67FE080E890E0EAD388818D7F0C
S1131F708883E1E8F0E080818160808388E0DF91FC
S1131F80CF9108951F920F920FB60F9211240BB6A2
S1131F900F922F933F934F935F936F937F938F93FE
S1131FA09F93AF93BF93EF93FF93E091B104F091AC
S1131FB0B204309709F01995FF91EF91BF91AF9159
S1131FC09F918F917F916F915F914F913F912F914D
S1131FD00F900BBE0F900FBE0F901F9018951F927D
S1131FE00F920FB60F9211240BB60F922F933F93BB
S1131FF04F935F936F937F938F939F93AF93BF930D
S1132000EF93FF93E091AF04F091B004309709F09F
S11320101995FF91EF91BF91AF919F918F917F910E
S11320206F915F914F913F912F910F900BBE0F9045
S11320300FBE0F901F9018951F920F920FB60F921C
S113204011240BB60F922F933F934F935F936F938B
S11320507F938F939F93AF93BF93EF93FF93E091FD
S1132060AD04F091AE04309709F01995FF91EF910A
S1132070BF91AF919F918F917F916F915F914F919C
S11320803F912F910F900BBE0F900FBE0F901F909A
S113209018951F920F920FB60F9211240BB60F9240
S11320A02F933F934F935F936F937F938F939F935C
S11320B0AF93BF93EF93FF93E091AB04F091AC0423
S11320C0309709F01995FF91EF91BF91AF919F91CE
S11320D08F917F916F915F914F913F912F910F90CD
S11320E00BBE0F900FBE0F901F9018951F920F926A
S11320F00FB60F9211240BB60F922F933F934F9369
S11321005F936F937F938F939F93AF93BF93EF935B
S1132110FF93E091A904F091AA04309709F019956E
S1132120FF91EF91BF91AF919F918F917F916F91AB
S11321305F914F913F912F910F900BBE0F900FBE67
S11321400F901F9018951F920F920FB60F921124A3
S11321500BB60F922F933F934F935F936F937F939D
S11321608F939F93AF93BF93EF93FF93E091A70453
S1132170F091A804309709F01995FF91EF91BF9160
S1132180AF919F918F917F916F915F914F913F910B
S11321902F910F900BBE0F900FBE0F901F901895AC
S11321A01F920F920FB60F9211240BB60F922F931A
S11321B03F934F935F936F937F938F939F93AF93CB
S11321C0BF93EF93FF93E091A504F091A604309799
S11321D009F01995FF91EF91BF91AF919F918F9164
S11321E07F916F915F914F913F912F910F900BBE13
S11321F00F900FBE0F901F9018951F920F920FB65D
S11322000F9211240BB60F922F933F934F935F932A
S11322106F937F938F939F93AF93BF93EF93FF93AA
S1132220E091A304F091A404309709F01995FF916B
S1132230EF91BF91AF919F918F917F916F915F913A
S11322404F913F912F910F900BBE0F900FBE0F90A7
S11322501F9018951F920F920FB60F9211240BB670
S11322600F922F933F934F935F936F937F938F932B
S11322709F93AF93BF93EF93FF93E091A104F091E9
S1132280A204309709F01995FF91EF91BF91AF9196
S11322909F918F917F916F915F914F913F912F917A
S11322A00F900BBE0F900FBE0F901F9018951F92AA
S11322B00F920FB60F9211240BB60F922F933F93E8
S11322C04F935F936F937F938F939F93AF93BF933A
S11322D0EF93FF93E0919F04F091A004309709F0ED
S11322E01995FF91EF91BF91AF919F918F917F913C
S11322F06F915F914F913F912F910F900BBE0F9073
S11323000FBE0F901F9018951F920F920FB60F9249
S113231011240BB60F922F933F934F935F936F93B8
S11323207F938F939F93AF93BF93EF93FF93E0912A
S11323309D04F0919E04309709F01995FF91EF9157
S1132340BF91AF919F918F917F916F915F914F91C9
S11323503F912F910F900BBE0F900FBE0F901F90C7
S113236018951F920F920FB60F9211240BB60F926D
S11323702F933F934F935F936F937F938F939F9389
S1132380AF93BF93EF93FF93E0919B04F0919C0470
S1132390309709F01995FF91EF91BF91AF919F91FB
S11323A08F917F916F915F914F913F912F910F90FA
S11323B00BBE0F900FBE0F901F9018951F920F9297
S11323C00FB60F9211240BB60F922F933F934F9396
S11323D05F936F937F938F939F93AF93BF93EF9389
S11323E0FF93E0919904F0919A04309709F01995BC
S11323F0FF91EF91BF91AF919F918F917F916F91D9
S11324005F914F913F912F910F900BBE0F900FBE94
S11324100F901F9018951F920F920FB60F921124D0
S11324200BB60F922F933F934F935F936F937F93CA
S11324308F939F93AF93BF93EF93FF93E091970490
S1132440F0919804309709F01995FF91EF91BF919D
S1132450AF919F918F917F916F915F914F913F9138
S11324602F910F900BBE0F900FBE0F901F901895D9
S11324701F920F920FB60F9211240BB60F922F9347
S11324803F934F935F936F937F938F939F93AF93F8
S1132490BF93EF93FF93E0919504F09196043097E6
S11324A009F01995FF91EF91BF91AF919F918F9191
S11324B07F916F915F914F913F912F910F900BBE40
S11324C00F900FBE0F901F9018951F920F920FB68A
S11324D00F9211240BB60F922F933F934F935F9358
S11324E06F937F938F939F93AF93BF93EF93FF93D8
S11324F0E0919304F0919404309709F01995FF91B9
S1132500EF91BF91AF919F918F917F916F915F9167
S11325104F913F912F910F900BBE0F900FBE0F90D4
S11325201F9018951F93CF93DF931F92CDB7DEB7FB
S11325302FB72983F8941981009709F464C0883768
S1132540910549F461E080E00E94CC0360E180E001
S11325500E94CC0358C0803C910529F462E080E0DD
S11325600E94CC0350C08C34910529F464E080E0CF
S11325700E94CC0348C08038910529F468E080E0CB
S11325800E94CC0340C08434910529F460E280E0C9
S11325900E94CC0338C0803B910529F460E480E0BC
S11325A00E94CC0330C0883B910529F460E880E0A8
S11325B00E94CC0328C0883C910529F461E081E0A5
S11325C00E94CC0320C08039910529F468E081E0A1
S11325D00E94CC0318C0803A910529F460E181E09F
S11325E00E94CC0310C0803221E0920729F460E2FB
S11325F081E00E94CC0307C08334914021F460E45D
S113260081E00E94CC031FBF0F90DF91CF911F91F7
S113261008951F93CF93DF931F92CDB7DEB72FB7E3
S11326202983F8941981009709F464C088379105C7
S113263049F461E080E00E94E40360E180E00E94EC
S1132640E40358C0803C910529F462E080E00E94D4
S1132650E40350C08C34910529F464E080E00E94C6
S1132660E40348C08038910529F468E080E00E94C2
S1132670E40340C08434910529F460E280E00E94C0
S1132680E40338C0803B910529F460E480E00E94B3
S1132690E40330C0883B910529F460E880E00E949F
S11326A0E40328C0883C910529F461E081E00E949C
S11326B0E40320C08039910529F468E081E00E9498
S11326C0E40318C0803A910529F460E181E00E9496
S11326D0E40310C0803221E0920729F460E281E033
S11326E00E94E40307C08334914021F460E481E054
S11326F00E94E4031FBF0F90DF91CF911F910895B3
S11327008038910529F47093B2046093B10408955C
S11327108039910529F47093AA046093A90408955B
S1132720803A910529F47093A2046093A10408955A
S11327308032914021F470939A046093990408952F
S11327408038910529F47093B0046093AF04089520
S11327508039910529F47093A8046093A70408951F
S1132760803A910529F47093A00460939F0408951E
S11327708032914021F470939804609397040895F3
S11327800E946F030E94AF030E94AE050E940B08D3
S11327900E94E601F9CF0C948F020895CF93DF9342
S11327A0EC010E94080289819A810E94DA05DF9176
S11327B0CF910895DB018F939F9349D0BF91AF913F
S11327C0A29F800D911DA39F900DB29F900D112487
S11327D00895AA1BBB1B51E107C0AA1FBB1FA61764
S11327E0B70710F0A61BB70B881F991F5A95A9F7B6
S11327F080959095BC01CD01089597FB072E16F4A2
S1132800009406D077FD08D0E4DF07FC05D03EF441
S1132810909581959F4F0895709561957F4F089588
S1132820EE0FFF1F881F8BBF0790F691E02D1994C0
S1132830A29FB001B39FC001A39F700D811D1124FD
S1132840911DB29F700D811D1124911D0895F0DF1B
S1132850A59F900DB49F900DA49F800D911D1124F0
S11328600895B7FFF4CFF3DF821B930B0895002480
S1132870A7FD00942A0F301D401D501D601D701DC2
S1132880801D901D08950024A7FD00942A1730058B
S113289040055005600570058005900508958F92E8
S11328A09F92AF92BF92CF92DF92EF92FF92CF931B
S11328B0DF93EC01688179818A819B8161157105BF
S11328C08105910521F464E279ED8BE597E02DE132
S11328D033EF41E050E04FD049015A019B01AC0174
S11328E0A7EAB1E4B4DF6B017C01ACEEB4EFA5015F
S11328F09401B9DFDC01CB018C0D9D1DAE1DBF1D04
S1132900B7FF03C00197A109B04888839983AA83BC
S1132910BB839F77DF91CF91FF90EF90DF90CF90B3
S1132920BF90AF909F908F900895B9CF80E092E0D0
S1132930B6CFA0E0B0E08093000290930102A09390
S11329400202B09303020895FB01DC0102C001906E
S11329500D9241505040D8F70895FB01DC014150DD
S1132960504030F08D910190801919F40020B9F78E
S1132970881B990B0895052E97FB16F400940FD02D
S113298057FD05D014D007FC02D046F408C050957A
S11329904095309521953F4F4F4F5F4F0895909547
S11329A08095709561957F4F8F4F9F4F0895A1E259
S11329B01A2EAA1BBB1BFD010DC0AA1FBB1FEE1FB5
S11329C0FF1FA217B307E407F50720F0A21BB30B00
S11329D0E40BF50B661F771F881F991F1A9469F77C
S11329E060957095809590959B01AC01BD01CF01D8
S10929F00895F894FFCFE6
S11329F601000000465275707475726120532030D0
S1132A06783030306E52757074757261205400528D
S1132A1675707475726120460046696E2052757031
S1092A26747572610000EA
S9030000FC
